{
  "contractName": "RedemptionData",
  "abi": [
    {
      "constant": true,
      "inputs": [
        {
          "name": "",
          "type": "address"
        }
      ],
      "name": "rewarded",
      "outputs": [
        {
          "name": "",
          "type": "uint256"
        }
      ],
      "payable": false,
      "stateMutability": "view",
      "type": "function"
    },
    {
      "constant": false,
      "inputs": [],
      "name": "renounceOwnership",
      "outputs": [],
      "payable": false,
      "stateMutability": "nonpayable",
      "type": "function"
    },
    {
      "constant": true,
      "inputs": [],
      "name": "owner",
      "outputs": [
        {
          "name": "",
          "type": "address"
        }
      ],
      "payable": false,
      "stateMutability": "view",
      "type": "function"
    },
    {
      "constant": true,
      "inputs": [],
      "name": "isOwner",
      "outputs": [
        {
          "name": "",
          "type": "bool"
        }
      ],
      "payable": false,
      "stateMutability": "view",
      "type": "function"
    },
    {
      "constant": false,
      "inputs": [
        {
          "name": "newOwner",
          "type": "address"
        }
      ],
      "name": "transferOwnership",
      "outputs": [],
      "payable": false,
      "stateMutability": "nonpayable",
      "type": "function"
    },
    {
      "constant": true,
      "inputs": [],
      "name": "token",
      "outputs": [
        {
          "name": "",
          "type": "address"
        }
      ],
      "payable": false,
      "stateMutability": "view",
      "type": "function"
    },
    {
      "inputs": [],
      "payable": false,
      "stateMutability": "nonpayable",
      "type": "constructor"
    },
    {
      "anonymous": false,
      "inputs": [
        {
          "indexed": true,
          "name": "Account",
          "type": "address"
        },
        {
          "indexed": false,
          "name": "Time",
          "type": "uint256"
        }
      ],
      "name": "SetClaim",
      "type": "event"
    },
    {
      "anonymous": false,
      "inputs": [
        {
          "indexed": true,
          "name": "Account",
          "type": "address"
        },
        {
          "indexed": false,
          "name": "Amount",
          "type": "uint256"
        }
      ],
      "name": "BonusClaimed",
      "type": "event"
    },
    {
      "anonymous": false,
      "inputs": [
        {
          "indexed": true,
          "name": "previousOwner",
          "type": "address"
        },
        {
          "indexed": true,
          "name": "newOwner",
          "type": "address"
        }
      ],
      "name": "OwnershipTransferred",
      "type": "event"
    },
    {
      "constant": true,
      "inputs": [
        {
          "name": "_user",
          "type": "address"
        }
      ],
      "name": "getUserBonuses",
      "outputs": [
        {
          "name": "",
          "type": "uint256"
        }
      ],
      "payable": false,
      "stateMutability": "view",
      "type": "function"
    },
    {
      "constant": false,
      "inputs": [
        {
          "name": "_user",
          "type": "address"
        },
        {
          "name": "_amount",
          "type": "uint256"
        }
      ],
      "name": "awardUser",
      "outputs": [],
      "payable": false,
      "stateMutability": "nonpayable",
      "type": "function"
    },
    {
      "constant": true,
      "inputs": [
        {
          "name": "_account",
          "type": "address"
        }
      ],
      "name": "getLastClaimed",
      "outputs": [
        {
          "name": "",
          "type": "uint256"
        }
      ],
      "payable": false,
      "stateMutability": "view",
      "type": "function"
    },
    {
      "constant": false,
      "inputs": [
        {
          "name": "_account",
          "type": "address"
        }
      ],
      "name": "setLastClaimed",
      "outputs": [
        {
          "name": "",
          "type": "bool"
        }
      ],
      "payable": false,
      "stateMutability": "nonpayable",
      "type": "function"
    }
  ],
  "bytecode": "0x608060405234801561001057600080fd5b5060008054600160a060020a0319163317808255604051600160a060020a039190911691907f8be0079c531659141344cd1fd0a4f28419497f9722a3daafe3b4186f6b6457e0908290a361072d806100696000396000f3fe608060405234801561001057600080fd5b50600436106100bb576000357c0100000000000000000000000000000000000000000000000000000000900480638da5cb5b116100835780638da5cb5b146101885780638f32d59b146101ac578063bd7fbbd6146101b4578063f2fde38b146101e0578063fc0c546a14610206576100bb565b8063130cf345146100c0578063379f53e3146100fa57806349f3334214610132578063715018a614610158578063799cb3b414610162575b600080fd5b6100e6600480360360208110156100d657600080fd5b5035600160a060020a031661020e565b604080519115158252519081900360200190f35b6101206004803603602081101561011057600080fd5b5035600160a060020a031661027d565b60408051918252519081900360200190f35b6101206004803603602081101561014857600080fd5b5035600160a060020a031661028f565b6101606102aa565b005b6101206004803603602081101561017857600080fd5b5035600160a060020a031661034d565b6101906103b7565b60408051600160a060020a039092168252519081900360200190f35b6100e66103c6565b610160600480360360408110156101ca57600080fd5b50600160a060020a0381351690602001356103d7565b610160600480360360208110156101f657600080fd5b5035600160a060020a031661053e565b610190610596565b60006102186103c6565b151561025c576040805160e560020a62461bcd02815260206004820181905260248201526000805160206106e2833981519152604482015290519081900360640190fd5b50600160a060020a0316600090815260016020819052604090912042905590565b60026020526000908152604090205481565b600160a060020a031660009081526002602052604090205490565b6102b26103c6565b15156102f6576040805160e560020a62461bcd02815260206004820181905260248201526000805160206106e2833981519152604482015290519081900360640190fd5b60008054604051600160a060020a03909116907f8be0079c531659141344cd1fd0a4f28419497f9722a3daafe3b4186f6b6457e0908390a36000805473ffffffffffffffffffffffffffffffffffffffff19169055565b60006103576103c6565b151561039b576040805160e560020a62461bcd02815260206004820181905260248201526000805160206106e2833981519152604482015290519081900360640190fd5b50600160a060020a031660009081526001602052604090205490565b600054600160a060020a031690565b600054600160a060020a0316331490565b6103df6103c6565b1515610423576040805160e560020a62461bcd02815260206004820181905260248201526000805160206106e2833981519152604482015290519081900360640190fd5b600160a060020a03821660009081526002602052604090205461044c908263ffffffff6105a516565b600160a060020a0380841660008181526002602090815260408083209590955560035485517f40c10f19000000000000000000000000000000000000000000000000000000008152600481019490945260248401879052945194909316936340c10f19936044808501949193918390030190829087803b1580156104cf57600080fd5b505af11580156104e3573d6000803e3d6000fd5b505050506040513d60208110156104f957600080fd5b5050604080518281529051600160a060020a038416917f4e69fdc49495bcab2b4375781457ba16653a90eb4ffb6588351bdc39071433e2919081900360200190a25050565b6105466103c6565b151561058a576040805160e560020a62461bcd02815260206004820181905260248201526000805160206106e2833981519152604482015290519081900360640190fd5b61059381610609565b50565b600354600160a060020a031681565b600082820183811015610602576040805160e560020a62461bcd02815260206004820152601b60248201527f536166654d6174683a206164646974696f6e206f766572666c6f770000000000604482015290519081900360640190fd5b9392505050565b600160a060020a03811615156106535760405160e560020a62461bcd0281526004018080602001828103825260268152602001806106bc6026913960400191505060405180910390fd5b60008054604051600160a060020a03808516939216917f8be0079c531659141344cd1fd0a4f28419497f9722a3daafe3b4186f6b6457e091a36000805473ffffffffffffffffffffffffffffffffffffffff1916600160a060020a039290921691909117905556fe4f776e61626c653a206e6577206f776e657220697320746865207a65726f20616464726573734f776e61626c653a2063616c6c6572206973206e6f7420746865206f776e6572a165627a7a7230582054f2ab7370b1eef4185894ebf02986ab8d2079693bb94dcdb75bf59a0a8963890029",
  "source": "pragma solidity ^0.5.0;\n\nimport 'openzeppelin-solidity/contracts/token/ERC20/ERC20.sol';\nimport 'openzeppelin-solidity/contracts/ownership/Ownable.sol';\nimport \"openzeppelin-solidity/contracts/math/SafeMath.sol\";\nimport \"./GoodDollar.sol\";\n\ncontract RedemptionData is Ownable {\n    using SafeMath for uint256;\n    mapping(address => uint256) private last_claimed;\n    mapping(address => uint256) public rewarded;\n    GoodDollar public token;\n\n    event SetClaim(address indexed Account, uint256 Time);\n    event BonusClaimed(address indexed Account, uint256 Amount);\n\n    constructor() public {\n    }\n\n    function getUserBonuses(\n         address _user\n    ) public view returns(uint256) {\n        return rewarded[_user];\n    }\n\n    function awardUser(\n        address _user, uint256 _amount\n    ) public onlyOwner {\n        rewarded[_user] = rewarded[_user].add(_amount);\n        token.mint(_user, _amount);\n        emit BonusClaimed(_user, _amount);\n    }\n\n    function getLastClaimed(\n        address _account\n    ) public view onlyOwner returns(uint256) {\n        return last_claimed[_account];\n    }\n\n    function setLastClaimed(\n        address _account\n    ) public onlyOwner returns(bool) {\n        last_claimed[_account] = now;\n        return true;\n    }\n\n}\n",
  "sourcePath": "/Users/alexeykosinski/work/nordwhale/GoodDollar/GoodBootstrap/packages/contracts/contracts/RedemptionData.sol",
  "compiler": {
    "name": "solc",
    "version": "0.5.2+commit.1df8f40c.Emscripten.clang"
  },
  "schemaVersion": "3.0.11",
  "updatedAt": "2019-09-08T12:31:30.025Z",
  "devdoc": {
    "methods": {
      "isOwner()": {
        "details": "Returns true if the caller is the current owner."
      },
      "owner()": {
        "details": "Returns the address of the current owner."
      },
      "renounceOwnership()": {
        "details": "Leaves the contract without owner. It will not be possible to call `onlyOwner` functions anymore. Can only be called by the current owner.     * > Note: Renouncing ownership will leave the contract without an owner, thereby removing any functionality that is only available to the owner."
      },
      "transferOwnership(address)": {
        "details": "Transfers ownership of the contract to a new account (`newOwner`). Can only be called by the current owner."
      }
    }
  },
  "userdoc": {
    "methods": {}
  }
}