{
  "contractName": "RedemptionFunctional",
  "abi": [
    {
      "constant": true,
      "inputs": [],
      "name": "identity",
      "outputs": [
        {
          "name": "",
          "type": "address"
        }
      ],
      "payable": false,
      "stateMutability": "view",
      "type": "function"
    },
    {
      "constant": false,
      "inputs": [],
      "name": "renounceOwnership",
      "outputs": [],
      "payable": false,
      "stateMutability": "nonpayable",
      "type": "function"
    },
    {
      "constant": true,
      "inputs": [],
      "name": "data",
      "outputs": [
        {
          "name": "",
          "type": "address"
        }
      ],
      "payable": false,
      "stateMutability": "view",
      "type": "function"
    },
    {
      "constant": true,
      "inputs": [],
      "name": "market",
      "outputs": [
        {
          "name": "",
          "type": "address"
        }
      ],
      "payable": false,
      "stateMutability": "view",
      "type": "function"
    },
    {
      "constant": true,
      "inputs": [],
      "name": "owner",
      "outputs": [
        {
          "name": "",
          "type": "address"
        }
      ],
      "payable": false,
      "stateMutability": "view",
      "type": "function"
    },
    {
      "constant": true,
      "inputs": [],
      "name": "isOwner",
      "outputs": [
        {
          "name": "",
          "type": "bool"
        }
      ],
      "payable": false,
      "stateMutability": "view",
      "type": "function"
    },
    {
      "constant": false,
      "inputs": [
        {
          "name": "newOwner",
          "type": "address"
        }
      ],
      "name": "transferOwnership",
      "outputs": [],
      "payable": false,
      "stateMutability": "nonpayable",
      "type": "function"
    },
    {
      "inputs": [
        {
          "name": "_identity_contract",
          "type": "address"
        },
        {
          "name": "_data_contract",
          "type": "address"
        },
        {
          "name": "_token",
          "type": "address"
        }
      ],
      "payable": false,
      "stateMutability": "nonpayable",
      "type": "constructor"
    },
    {
      "anonymous": false,
      "inputs": [
        {
          "indexed": true,
          "name": "by",
          "type": "address"
        },
        {
          "indexed": false,
          "name": "total",
          "type": "uint256"
        }
      ],
      "name": "UBIClaimed",
      "type": "event"
    },
    {
      "anonymous": false,
      "inputs": [
        {
          "indexed": true,
          "name": "previousOwner",
          "type": "address"
        },
        {
          "indexed": true,
          "name": "newOwner",
          "type": "address"
        }
      ],
      "name": "OwnershipTransferred",
      "type": "event"
    },
    {
      "constant": true,
      "inputs": [],
      "name": "getLastClaimed",
      "outputs": [
        {
          "name": "",
          "type": "uint256"
        }
      ],
      "payable": false,
      "stateMutability": "view",
      "type": "function"
    },
    {
      "constant": false,
      "inputs": [],
      "name": "claimTokens",
      "outputs": [
        {
          "name": "",
          "type": "bool"
        }
      ],
      "payable": false,
      "stateMutability": "nonpayable",
      "type": "function"
    },
    {
      "constant": true,
      "inputs": [],
      "name": "checkEntitlement",
      "outputs": [
        {
          "name": "",
          "type": "uint256"
        }
      ],
      "payable": false,
      "stateMutability": "view",
      "type": "function"
    }
  ],
  "bytecode": "0x608060405234801561001057600080fd5b506040516060806109038339810180604052606081101561003057600080fd5b508051602082015160409283015160008054600160a060020a03191633178082559451939492939192600160a060020a0316917f8be0079c531659141344cd1fd0a4f28419497f9722a3daafe3b4186f6b6457e0908290a360018054600160a060020a03948516600160a060020a03199182161790915560028054938516938216939093179092556003805491909316911617905561082f806100d46000396000f3fe608060405234801561001057600080fd5b50600436106100ba576000357c01000000000000000000000000000000000000000000000000000000009004806380f556051161008357806380f556051461012b5780638da5cb5b146101335780638f32d59b1461013b57806398d6621b14610143578063f2fde38b1461014b576100ba565b8062f1ec20146100bf5780632c159a1a146100d957806348c54b9d146100fd578063715018a61461011957806373d4a13a14610123575b600080fd5b6100c7610171565b60408051918252519081900360200190f35b6100e1610207565b60408051600160a060020a039092168252519081900360200190f35b610105610216565b604080519115158252519081900360200190f35b6101216104cf565b005b6100e161059b565b6100e16105aa565b6100e16105b9565b6101056105c8565b6100c76105d9565b6101216004803603602081101561016157600080fd5b5035600160a060020a031661068e565b600254604080517f799cb3b40000000000000000000000000000000000000000000000000000000081523360048201529051600092600160a060020a03169163799cb3b4916024808301926020929190829003018186803b1580156101d557600080fd5b505afa1580156101e9573d6000803e3d6000fd5b505050506040513d60208110156101ff57600080fd5b505190505b90565b600154600160a060020a031681565b600154604080517fb9209e3300000000000000000000000000000000000000000000000000000000815233600482015290516000928392600160a060020a039091169163b9209e3391602480820192602092909190829003018186803b15801561027f57600080fd5b505afa158015610293573d6000803e3d6000fd5b505050506040513d60208110156102a957600080fd5b505190508015156102b957600080fd5b600254604080517f799cb3b400000000000000000000000000000000000000000000000000000000815233600482015290514292600160a060020a03169163799cb3b4916024808301926020929190829003018186803b15801561031c57600080fd5b505afa158015610330573d6000803e3d6000fd5b505050506040513d602081101561034657600080fd5b505162015180011061035757600080fd5b600254604080517f130cf3450000000000000000000000000000000000000000000000000000000081523360048201529051600160a060020a039092169163130cf345916024808201926020929091908290030181600087803b1580156103bd57600080fd5b505af11580156103d1573d6000803e3d6000fd5b505050506040513d60208110156103e757600080fd5b50600090506103f461070f565b600354604080517f40c10f19000000000000000000000000000000000000000000000000000000008152336004820152602481018490529051929350600160a060020a03909116916340c10f19916044808201926020929091908290030181600087803b15801561046457600080fd5b505af1158015610478573d6000803e3d6000fd5b505050506040513d602081101561048e57600080fd5b505060408051828152905133917f89ed24731df6b066e4c5186901fffdba18cd9a10f07494aff900bdee260d1304919081900360200190a260019250505090565b6104d76105c8565b151561054457604080517f08c379a000000000000000000000000000000000000000000000000000000000815260206004820181905260248201527f4f776e61626c653a2063616c6c6572206973206e6f7420746865206f776e6572604482015290519081900360640190fd5b60008054604051600160a060020a03909116907f8be0079c531659141344cd1fd0a4f28419497f9722a3daafe3b4186f6b6457e0908390a36000805473ffffffffffffffffffffffffffffffffffffffff19169055565b600254600160a060020a031681565b600354600160a060020a031681565b600054600160a060020a031690565b600054600160a060020a0316331490565b600254604080517f799cb3b400000000000000000000000000000000000000000000000000000000815233600482015290516000924292600160a060020a039091169163799cb3b491602480820192602092909190829003018186803b15801561064257600080fd5b505afa158015610656573d6000803e3d6000fd5b505050506040513d602081101561066c57600080fd5b50516201518001111561068157506000610204565b61068961070f565b905090565b6106966105c8565b151561070357604080517f08c379a000000000000000000000000000000000000000000000000000000000815260206004820181905260248201527f4f776e61626c653a2063616c6c6572206973206e6f7420746865206f776e6572604482015290519081900360640190fd5b61070c81610714565b50565b606490565b600160a060020a0381161515610775576040517f08c379a00000000000000000000000000000000000000000000000000000000081526004018080602001828103825260268152602001806107de6026913960400191505060405180910390fd5b60008054604051600160a060020a03808516939216917f8be0079c531659141344cd1fd0a4f28419497f9722a3daafe3b4186f6b6457e091a36000805473ffffffffffffffffffffffffffffffffffffffff1916600160a060020a039290921691909117905556fe4f776e61626c653a206e6577206f776e657220697320746865207a65726f2061646472657373a165627a7a723058203ea948c542da85d4515da5f30aa9da89773508943bb16782e787086b24f1d7010029",
  "source": "pragma solidity ^0.5.0;\r\n\r\nimport 'openzeppelin-solidity/contracts/math/SafeMath.sol';\r\nimport 'openzeppelin-solidity/contracts/ownership/Ownable.sol';\r\n\r\nimport './GoodDollarReserve.sol';\r\nimport './RedemptionData.sol';\r\nimport './Identity.sol';\r\n\r\ncontract RedemptionFunctional is Ownable {\r\n  using SafeMath for uint256;\r\n\r\n  Identity public identity;\r\n  RedemptionData public data;\r\n  GoodDollarReserve public market;\r\n\r\n  event UBIClaimed(address indexed by, uint256 total);\r\n\r\n  modifier whiteListed() {\r\n    bool check = identity.isVerified(msg.sender);\r\n    require(check);\r\n    _;\r\n  }  \r\n\r\n  constructor(address _identity_contract, address _data_contract, address _token) public {\r\n    identity = Identity(_identity_contract);\r\n    data = RedemptionData(_data_contract);\r\n    market = GoodDollarReserve(_token);\r\n  }\r\n\r\n\r\n\r\n  function getLastClaimed() public view returns(uint256) {\r\n    return data.getLastClaimed(msg.sender);\r\n  }\r\n\r\n\r\n\r\n  function calculateClaim() internal view returns(uint256) {\r\n    return 100;\r\n  }\r\n\r\n  function claimTokens() public whiteListed returns(bool) {\r\n    require(data.getLastClaimed(msg.sender) + 1 days < now);\r\n\r\n    data.setLastClaimed(msg.sender);\r\n    uint256 amount = calculateClaim();\r\n    market.mint(msg.sender, amount);\r\n    emit UBIClaimed(msg.sender, amount);\r\n    return true;\r\n  }\r\n  /**\r\n  * @dev Function to check how many tokens a user is entitled to mint\r\n  * @return Number of tokens you are entitled to\r\n  */\r\n  function checkEntitlement() public view returns(uint) {\r\n    if(data.getLastClaimed(msg.sender) + 1 days > now)\r\n      return 0;\r\n    return calculateClaim();\r\n  }\r\n}\r\n",
  "sourcePath": "/Users/alexeykosinski/work/nordwhale/GoodDollar/GoodBootstrap/packages/contracts/contracts/RedemptionFunctional.sol",
  "compiler": {
    "name": "solc",
    "version": "0.5.2+commit.1df8f40c.Emscripten.clang"
  },
  "schemaVersion": "3.0.11",
  "updatedAt": "2019-09-08T12:31:30.028Z",
  "devdoc": {
    "methods": {
      "checkEntitlement()": {
        "details": "Function to check how many tokens a user is entitled to mint\r",
        "return": "Number of tokens you are entitled to\r"
      },
      "isOwner()": {
        "details": "Returns true if the caller is the current owner."
      },
      "owner()": {
        "details": "Returns the address of the current owner."
      },
      "renounceOwnership()": {
        "details": "Leaves the contract without owner. It will not be possible to call `onlyOwner` functions anymore. Can only be called by the current owner.     * > Note: Renouncing ownership will leave the contract without an owner, thereby removing any functionality that is only available to the owner."
      },
      "transferOwnership(address)": {
        "details": "Transfers ownership of the contract to a new account (`newOwner`). Can only be called by the current owner."
      }
    }
  },
  "userdoc": {
    "methods": {}
  }
}